{
  "contractName": "CommunityContract",
  "abi": [
    {
      "anonymous": false,
      "inputs": [
        {
          "indexed": true,
          "internalType": "uint256",
          "name": "communityId",
          "type": "uint256"
        },
        {
          "indexed": true,
          "internalType": "address",
          "name": "owner",
          "type": "address"
        },
        {
          "indexed": false,
          "internalType": "string",
          "name": "name",
          "type": "string"
        },
        {
          "indexed": false,
          "internalType": "string",
          "name": "description",
          "type": "string"
        }
      ],
      "name": "CommunityCreated",
      "type": "event"
    },
    {
      "anonymous": false,
      "inputs": [
        {
          "indexed": true,
          "internalType": "uint256",
          "name": "communityId",
          "type": "uint256"
        },
        {
          "indexed": true,
          "internalType": "address",
          "name": "owner",
          "type": "address"
        },
        {
          "indexed": false,
          "internalType": "string",
          "name": "name",
          "type": "string"
        },
        {
          "indexed": false,
          "internalType": "string",
          "name": "description",
          "type": "string"
        }
      ],
      "name": "CommunityUpdated",
      "type": "event"
    },
    {
      "anonymous": false,
      "inputs": [
        {
          "indexed": true,
          "internalType": "address",
          "name": "previousOwner",
          "type": "address"
        },
        {
          "indexed": true,
          "internalType": "address",
          "name": "newOwner",
          "type": "address"
        }
      ],
      "name": "OwnershipTransferred",
      "type": "event"
    },
    {
      "anonymous": false,
      "inputs": [
        {
          "indexed": false,
          "internalType": "address",
          "name": "account",
          "type": "address"
        }
      ],
      "name": "Paused",
      "type": "event"
    },
    {
      "anonymous": false,
      "inputs": [
        {
          "indexed": false,
          "internalType": "address",
          "name": "account",
          "type": "address"
        }
      ],
      "name": "Unpaused",
      "type": "event"
    },
    {
      "inputs": [
        {
          "internalType": "uint256",
          "name": "",
          "type": "uint256"
        }
      ],
      "name": "communities",
      "outputs": [
        {
          "internalType": "string",
          "name": "name",
          "type": "string"
        },
        {
          "internalType": "string",
          "name": "description",
          "type": "string"
        },
        {
          "internalType": "address",
          "name": "owner",
          "type": "address"
        },
        {
          "internalType": "bool",
          "name": "isEnabled",
          "type": "bool"
        }
      ],
      "stateMutability": "view",
      "type": "function",
      "constant": true
    },
    {
      "inputs": [],
      "name": "communityCounter",
      "outputs": [
        {
          "internalType": "uint256",
          "name": "",
          "type": "uint256"
        }
      ],
      "stateMutability": "view",
      "type": "function",
      "constant": true
    },
    {
      "inputs": [
        {
          "internalType": "uint256",
          "name": "",
          "type": "uint256"
        }
      ],
      "name": "communityIds",
      "outputs": [
        {
          "internalType": "uint256",
          "name": "",
          "type": "uint256"
        }
      ],
      "stateMutability": "view",
      "type": "function",
      "constant": true
    },
    {
      "inputs": [
        {
          "internalType": "string",
          "name": "",
          "type": "string"
        }
      ],
      "name": "nameToId",
      "outputs": [
        {
          "internalType": "uint256",
          "name": "",
          "type": "uint256"
        }
      ],
      "stateMutability": "view",
      "type": "function",
      "constant": true
    },
    {
      "inputs": [],
      "name": "owner",
      "outputs": [
        {
          "internalType": "address",
          "name": "",
          "type": "address"
        }
      ],
      "stateMutability": "view",
      "type": "function",
      "constant": true
    },
    {
      "inputs": [],
      "name": "paused",
      "outputs": [
        {
          "internalType": "bool",
          "name": "",
          "type": "bool"
        }
      ],
      "stateMutability": "view",
      "type": "function",
      "constant": true
    },
    {
      "inputs": [],
      "name": "renounceOwnership",
      "outputs": [],
      "stateMutability": "nonpayable",
      "type": "function"
    },
    {
      "inputs": [
        {
          "internalType": "address",
          "name": "newOwner",
          "type": "address"
        }
      ],
      "name": "transferOwnership",
      "outputs": [],
      "stateMutability": "nonpayable",
      "type": "function"
    },
    {
      "inputs": [
        {
          "internalType": "string",
          "name": "_name",
          "type": "string"
        },
        {
          "internalType": "string",
          "name": "_description",
          "type": "string"
        }
      ],
      "name": "createCommunity",
      "outputs": [],
      "stateMutability": "nonpayable",
      "type": "function"
    },
    {
      "inputs": [
        {
          "internalType": "string",
          "name": "_name",
          "type": "string"
        }
      ],
      "name": "getCommunityId",
      "outputs": [
        {
          "internalType": "uint256",
          "name": "",
          "type": "uint256"
        }
      ],
      "stateMutability": "view",
      "type": "function",
      "constant": true
    },
    {
      "inputs": [
        {
          "internalType": "uint256",
          "name": "_communityId",
          "type": "uint256"
        }
      ],
      "name": "getCommunity",
      "outputs": [
        {
          "internalType": "string",
          "name": "",
          "type": "string"
        },
        {
          "internalType": "string",
          "name": "",
          "type": "string"
        },
        {
          "internalType": "address",
          "name": "",
          "type": "address"
        },
        {
          "internalType": "bool",
          "name": "",
          "type": "bool"
        },
        {
          "internalType": "uint256[]",
          "name": "",
          "type": "uint256[]"
        }
      ],
      "stateMutability": "view",
      "type": "function",
      "constant": true
    },
    {
      "inputs": [],
      "name": "getCommunityIds",
      "outputs": [
        {
          "internalType": "uint256[]",
          "name": "",
          "type": "uint256[]"
        }
      ],
      "stateMutability": "view",
      "type": "function",
      "constant": true
    },
    {
      "inputs": [
        {
          "internalType": "uint256",
          "name": "_communityId",
          "type": "uint256"
        },
        {
          "internalType": "string",
          "name": "_name",
          "type": "string"
        },
        {
          "internalType": "string",
          "name": "_description",
          "type": "string"
        }
      ],
      "name": "updateCommunity",
      "outputs": [],
      "stateMutability": "nonpayable",
      "type": "function"
    },
    {
      "inputs": [
        {
          "internalType": "uint256",
          "name": "_communityId",
          "type": "uint256"
        }
      ],
      "name": "isCommunityEnabled",
      "outputs": [
        {
          "internalType": "bool",
          "name": "",
          "type": "bool"
        }
      ],
      "stateMutability": "view",
      "type": "function",
      "constant": true
    },
    {
      "inputs": [
        {
          "internalType": "uint256",
          "name": "_communityId",
          "type": "uint256"
        }
      ],
      "name": "enableCommunity",
      "outputs": [],
      "stateMutability": "nonpayable",
      "type": "function"
    },
    {
      "inputs": [
        {
          "internalType": "uint256",
          "name": "_communityId",
          "type": "uint256"
        }
      ],
      "name": "disableCommunity",
      "outputs": [],
      "stateMutability": "nonpayable",
      "type": "function"
    },
    {
      "inputs": [
        {
          "internalType": "uint256",
          "name": "_communityId",
          "type": "uint256"
        },
        {
          "internalType": "uint256",
          "name": "_postId",
          "type": "uint256"
        }
      ],
      "name": "addPostIdToCommunity",
      "outputs": [],
      "stateMutability": "nonpayable",
      "type": "function"
    },
    {
      "inputs": [
        {
          "internalType": "uint256",
          "name": "_communityId",
          "type": "uint256"
        },
        {
          "internalType": "uint256",
          "name": "_postId",
          "type": "uint256"
        }
      ],
      "name": "removePostIdFromCommunity",
      "outputs": [],
      "stateMutability": "nonpayable",
      "type": "function"
    },
    {
      "inputs": [],
      "name": "pause",
      "outputs": [],
      "stateMutability": "nonpayable",
      "type": "function"
    },
    {
      "inputs": [],
      "name": "unpause",
      "outputs": [],
      "stateMutability": "nonpayable",
      "type": "function"
    }
  ],
  "bytecode": "0x60806040526000600355600067ffffffffffffffff811115620000275762000026620001fa565b5b604051908082528060200260200182016040528015620000565781602001602082028036833780820191505090505b50600490805190602001906200006e92919062000189565b503480156200007c57600080fd5b506200009d62000091620000bd60201b60201c565b620000c560201b60201c565b60008060146101000a81548160ff02191690831515021790555062000229565b600033905090565b60008060009054906101000a900473ffffffffffffffffffffffffffffffffffffffff169050816000806101000a81548173ffffffffffffffffffffffffffffffffffffffff021916908373ffffffffffffffffffffffffffffffffffffffff1602179055508173ffffffffffffffffffffffffffffffffffffffff168173ffffffffffffffffffffffffffffffffffffffff167f8be0079c531659141344cd1fd0a4f28419497f9722a3daafe3b4186f6b6457e060405160405180910390a35050565b828054828255906000526020600020908101928215620001c8579160200282015b82811115620001c7578251825591602001919060010190620001aa565b5b509050620001d79190620001db565b5090565b5b80821115620001f6576000816000905550600101620001dc565b5090565b7f4e487b7100000000000000000000000000000000000000000000000000000000600052604160045260246000fd5b61203c80620002396000396000f3fe608060405234801561001057600080fd5b506004361061012c5760003560e01c80637a5b730b116100ad578063a0024e4511610071578063a0024e45146102fb578063e590b56a14610317578063eecb7d221461034a578063f2fde38b14610366578063f6d8f2cb146103825761012c565b80637a5b730b146102695780638456cb59146102875780638c2bf5c5146102915780638da5cb5b146102c15780639d8a1ecc146102df5761012c565b8063426b6283116100f4578063426b6283146101c35780634448d64c146101f357806352923385146102235780635c975abb14610241578063715018a61461025f5761012c565b806303b28c33146101315780631a1ebfc91461014d5780632f20fb5914610169578063370603f8146101855780633f4ba83a146101b9575b600080fd5b61014b60048036038101906101469190611435565b6103b2565b005b610167600480360381019061016291906114e3565b6105ca565b005b610183600480360381019061017e9190611510565b6106a7565b005b61019f600480360381019061019a91906114e3565b6107d8565b6040516101b09594939291906116e9565b60405180910390f35b6101c16109fa565b005b6101dd60048036038101906101d891906114e3565b610a0c565b6040516101ea9190611751565b60405180910390f35b61020d6004803603810190610208919061176c565b610a39565b60405161021a91906117c4565b60405180910390f35b61022b610a61565b60405161023891906117df565b60405180910390f35b610249610ab9565b6040516102569190611751565b60405180910390f35b610267610acf565b005b610271610ae3565b60405161027e91906117c4565b60405180910390f35b61028f610ae9565b005b6102ab60048036038101906102a691906114e3565b610afb565b6040516102b891906117c4565b60405180910390f35b6102c9610b1f565b6040516102d69190611801565b60405180910390f35b6102f960048036038101906102f491906114e3565b610b48565b005b61031560048036038101906103109190611510565b610c26565b005b610331600480360381019061032c91906114e3565b610c67565b604051610341949392919061181c565b60405180910390f35b610364600480360381019061035f919061186f565b610dd4565b005b610380600480360381019061037b9190611926565b610f1e565b005b61039c6004803603810190610397919061176c565b610fa1565b6040516103a991906117c4565b60405180910390f35b6103ba610fcf565b6040518060a001604052808381526020018281526020013373ffffffffffffffffffffffffffffffffffffffff168152602001600115158152602001600067ffffffffffffffff8111156104115761041061130a565b5b60405190808252806020026020018201604052801561043f5781602001602082028036833780820191505090505b50815250600160006003548152602001908152602001600020600082015181600001908161046d9190611b5f565b5060208201518160010190816104839190611b5f565b5060408201518160020160006101000a81548173ffffffffffffffffffffffffffffffffffffffff021916908373ffffffffffffffffffffffffffffffffffffffff16021790555060608201518160020160146101000a81548160ff0219169083151502179055506080820151816003019080519060200190610507929190611271565b5090505060035460028360405161051e9190611c6d565b9081526020016040518091039020819055503373ffffffffffffffffffffffffffffffffffffffff166003547f05117d86257948a373a638259cb64263dcdd5cd1bd0402baa7a4258319e749bb848460405161057b929190611c84565b60405180910390a360046003549080600181540180825580915050600190039060005260206000200160009091909190915055600360008154809291906105c190611cea565b91905055505050565b6105d2610fcf565b6001600082815260200190815260200160002060020160009054906101000a900473ffffffffffffffffffffffffffffffffffffffff1673ffffffffffffffffffffffffffffffffffffffff163373ffffffffffffffffffffffffffffffffffffffff1614610676576040517f08c379a000000000000000000000000000000000000000000000000000000000815260040161066d90611d7e565b60405180910390fd5b600180600083815260200190815260200160002060020160146101000a81548160ff02191690831515021790555050565b60006001600084815260200190815260200160002060030180549050905060005b818110156107d257826001600086815260200190815260200160002060030182815481106106f9576106f8611d9e565b5b9060005260206000200154036107bf576001600085815260200190815260200160002060030160018361072c9190611dcd565b8154811061073d5761073c611d9e565b5b90600052602060002001546001600086815260200190815260200160002060030182815481106107705761076f611d9e565b5b9060005260206000200181905550600160008581526020019081526020016000206003018054806107a4576107a3611e01565b5b600190038181906000526020600020016000905590556107d2565b80806107ca90611cea565b9150506106c8565b50505050565b606080600080606060016000878152602001908152602001600020600001600160008881526020019081526020016000206001016001600089815260200190815260200160002060020160009054906101000a900473ffffffffffffffffffffffffffffffffffffffff16600160008a815260200190815260200160002060020160149054906101000a900460ff16600160008b815260200190815260200160002060030184805461088990611982565b80601f01602080910402602001604051908101604052809291908181526020018280546108b590611982565b80156109025780601f106108d757610100808354040283529160200191610902565b820191906000526020600020905b8154815290600101906020018083116108e557829003601f168201915b5050505050945083805461091590611982565b80601f016020809104026020016040519081016040528092919081815260200182805461094190611982565b801561098e5780601f106109635761010080835404028352916020019161098e565b820191906000526020600020905b81548152906001019060200180831161097157829003601f168201915b50505050509350808054806020026020016040519081016040528092919081815260200182805480156109e057602002820191906000526020600020905b8154815260200190600101908083116109cc575b505050505090509450945094509450945091939590929450565b610a02611019565b610a0a611097565b565b60006001600083815260200190815260200160002060020160149054906101000a900460ff169050919050565b6000600282604051610a4b9190611c6d565b9081526020016040518091039020549050919050565b60606004805480602002602001604051908101604052809291908181526020018280548015610aaf57602002820191906000526020600020905b815481526020019060010190808311610a9b575b5050505050905090565b60008060149054906101000a900460ff16905090565b610ad7611019565b610ae160006110f9565b565b60035481565b610af1611019565b610af96111bd565b565b60048181548110610b0b57600080fd5b906000526020600020016000915090505481565b60008060009054906101000a900473ffffffffffffffffffffffffffffffffffffffff16905090565b610b50610fcf565b6001600082815260200190815260200160002060020160009054906101000a900473ffffffffffffffffffffffffffffffffffffffff1673ffffffffffffffffffffffffffffffffffffffff163373ffffffffffffffffffffffffffffffffffffffff1614610bf4576040517f08c379a0000000000000000000000000000000000000000000000000000000008152600401610beb90611d7e565b60405180910390fd5b60006001600083815260200190815260200160002060020160146101000a81548160ff02191690831515021790555050565b600160008381526020019081526020016000206003018190806001815401808255809150506001900390600052602060002001600090919091909150555050565b6001602052806000526040600020600091509050806000018054610c8a90611982565b80601f0160208091040260200160405190810160405280929190818152602001828054610cb690611982565b8015610d035780601f10610cd857610100808354040283529160200191610d03565b820191906000526020600020905b815481529060010190602001808311610ce657829003601f168201915b505050505090806001018054610d1890611982565b80601f0160208091040260200160405190810160405280929190818152602001828054610d4490611982565b8015610d915780601f10610d6657610100808354040283529160200191610d91565b820191906000526020600020905b815481529060010190602001808311610d7457829003601f168201915b5050505050908060020160009054906101000a900473ffffffffffffffffffffffffffffffffffffffff16908060020160149054906101000a900460ff16905084565b610ddc610fcf565b6001600084815260200190815260200160002060020160009054906101000a900473ffffffffffffffffffffffffffffffffffffffff1673ffffffffffffffffffffffffffffffffffffffff163373ffffffffffffffffffffffffffffffffffffffff1614610e80576040517f08c379a0000000000000000000000000000000000000000000000000000000008152600401610e7790611d7e565b60405180910390fd5b81600160008581526020019081526020016000206000019081610ea39190611b5f565b5080600160008581526020019081526020016000206001019081610ec79190611b5f565b503373ffffffffffffffffffffffffffffffffffffffff16837f966f170f085b3fd1cf1e51d9497dcdf2e316a3f1160eecabcc47aee8897256e48484604051610f11929190611c84565b60405180910390a3505050565b610f26611019565b600073ffffffffffffffffffffffffffffffffffffffff168173ffffffffffffffffffffffffffffffffffffffff1603610f95576040517f08c379a0000000000000000000000000000000000000000000000000000000008152600401610f8c90611ea2565b60405180910390fd5b610f9e816110f9565b50565b6002818051602081018201805184825260208301602085012081835280955050505050506000915090505481565b610fd7610ab9565b15611017576040517f08c379a000000000000000000000000000000000000000000000000000000000815260040161100e90611f0e565b60405180910390fd5b565b611021611220565b73ffffffffffffffffffffffffffffffffffffffff1661103f610b1f565b73ffffffffffffffffffffffffffffffffffffffff1614611095576040517f08c379a000000000000000000000000000000000000000000000000000000000815260040161108c90611f7a565b60405180910390fd5b565b61109f611228565b60008060146101000a81548160ff0219169083151502179055507f5db9ee0a495bf2e6ff9c91a7834c1ba4fdd244a5e8aa4e537bd38aeae4b073aa6110e2611220565b6040516110ef9190611801565b60405180910390a1565b60008060009054906101000a900473ffffffffffffffffffffffffffffffffffffffff169050816000806101000a81548173ffffffffffffffffffffffffffffffffffffffff021916908373ffffffffffffffffffffffffffffffffffffffff1602179055508173ffffffffffffffffffffffffffffffffffffffff168173ffffffffffffffffffffffffffffffffffffffff167f8be0079c531659141344cd1fd0a4f28419497f9722a3daafe3b4186f6b6457e060405160405180910390a35050565b6111c5610fcf565b6001600060146101000a81548160ff0219169083151502179055507f62e78cea01bee320cd4e420270b5ea74000d11b0c9f74754ebdbfc544b05a258611209611220565b6040516112169190611801565b60405180910390a1565b600033905090565b611230610ab9565b61126f576040517f08c379a000000000000000000000000000000000000000000000000000000000815260040161126690611fe6565b60405180910390fd5b565b8280548282559060005260206000209081019282156112ad579160200282015b828111156112ac578251825591602001919060010190611291565b5b5090506112ba91906112be565b5090565b5b808211156112d75760008160009055506001016112bf565b5090565b6000604051905090565b600080fd5b600080fd5b600080fd5b600080fd5b6000601f19601f8301169050919050565b7f4e487b7100000000000000000000000000000000000000000000000000000000600052604160045260246000fd5b611342826112f9565b810181811067ffffffffffffffff821117156113615761136061130a565b5b80604052505050565b60006113746112db565b90506113808282611339565b919050565b600067ffffffffffffffff8211156113a05761139f61130a565b5b6113a9826112f9565b9050602081019050919050565b82818337600083830152505050565b60006113d86113d384611385565b61136a565b9050828152602081018484840111156113f4576113f36112f4565b5b6113ff8482856113b6565b509392505050565b600082601f83011261141c5761141b6112ef565b5b813561142c8482602086016113c5565b91505092915050565b6000806040838503121561144c5761144b6112e5565b5b600083013567ffffffffffffffff81111561146a576114696112ea565b5b61147685828601611407565b925050602083013567ffffffffffffffff811115611497576114966112ea565b5b6114a385828601611407565b9150509250929050565b6000819050919050565b6114c0816114ad565b81146114cb57600080fd5b50565b6000813590506114dd816114b7565b92915050565b6000602082840312156114f9576114f86112e5565b5b6000611507848285016114ce565b91505092915050565b60008060408385031215611527576115266112e5565b5b6000611535858286016114ce565b9250506020611546858286016114ce565b9150509250929050565b600081519050919050565b600082825260208201905092915050565b60005b8381101561158a57808201518184015260208101905061156f565b60008484015250505050565b60006115a182611550565b6115ab818561155b565b93506115bb81856020860161156c565b6115c4816112f9565b840191505092915050565b600073ffffffffffffffffffffffffffffffffffffffff82169050919050565b60006115fa826115cf565b9050919050565b61160a816115ef565b82525050565b60008115159050919050565b61162581611610565b82525050565b600081519050919050565b600082825260208201905092915050565b6000819050602082019050919050565b611660816114ad565b82525050565b60006116728383611657565b60208301905092915050565b6000602082019050919050565b60006116968261162b565b6116a08185611636565b93506116ab83611647565b8060005b838110156116dc5781516116c38882611666565b97506116ce8361167e565b9250506001810190506116af565b5085935050505092915050565b600060a08201905081810360008301526117038188611596565b905081810360208301526117178187611596565b90506117266040830186611601565b611733606083018561161c565b8181036080830152611745818461168b565b90509695505050505050565b6000602082019050611766600083018461161c565b92915050565b600060208284031215611782576117816112e5565b5b600082013567ffffffffffffffff8111156117a05761179f6112ea565b5b6117ac84828501611407565b91505092915050565b6117be816114ad565b82525050565b60006020820190506117d960008301846117b5565b92915050565b600060208201905081810360008301526117f9818461168b565b905092915050565b60006020820190506118166000830184611601565b92915050565b600060808201905081810360008301526118368187611596565b9050818103602083015261184a8186611596565b90506118596040830185611601565b611866606083018461161c565b95945050505050565b600080600060608486031215611888576118876112e5565b5b6000611896868287016114ce565b935050602084013567ffffffffffffffff8111156118b7576118b66112ea565b5b6118c386828701611407565b925050604084013567ffffffffffffffff8111156118e4576118e36112ea565b5b6118f086828701611407565b9150509250925092565b611903816115ef565b811461190e57600080fd5b50565b600081359050611920816118fa565b92915050565b60006020828403121561193c5761193b6112e5565b5b600061194a84828501611911565b91505092915050565b7f4e487b7100000000000000000000000000000000000000000000000000000000600052602260045260246000fd5b6000600282049050600182168061199a57607f821691505b6020821081036119ad576119ac611953565b5b50919050565b60008190508160005260206000209050919050565b60006020601f8301049050919050565b600082821b905092915050565b600060088302611a157fffffffffffffffffffffffffffffffffffffffffffffffffffffffffffffffff826119d8565b611a1f86836119d8565b95508019841693508086168417925050509392505050565b6000819050919050565b6000611a5c611a57611a52846114ad565b611a37565b6114ad565b9050919050565b6000819050919050565b611a7683611a41565b611a8a611a8282611a63565b8484546119e5565b825550505050565b600090565b611a9f611a92565b611aaa818484611a6d565b505050565b5b81811015611ace57611ac3600082611a97565b600181019050611ab0565b5050565b601f821115611b1357611ae4816119b3565b611aed846119c8565b81016020851015611afc578190505b611b10611b08856119c8565b830182611aaf565b50505b505050565b600082821c905092915050565b6000611b3660001984600802611b18565b1980831691505092915050565b6000611b4f8383611b25565b9150826002028217905092915050565b611b6882611550565b67ffffffffffffffff811115611b8157611b8061130a565b5b611b8b8254611982565b611b96828285611ad2565b600060209050601f831160018114611bc95760008415611bb7578287015190505b611bc18582611b43565b865550611c29565b601f198416611bd7866119b3565b60005b82811015611bff57848901518255600182019150602085019450602081019050611bda565b86831015611c1c5784890151611c18601f891682611b25565b8355505b6001600288020188555050505b505050505050565b600081905092915050565b6000611c4782611550565b611c518185611c31565b9350611c6181856020860161156c565b80840191505092915050565b6000611c798284611c3c565b915081905092915050565b60006040820190508181036000830152611c9e8185611596565b90508181036020830152611cb28184611596565b90509392505050565b7f4e487b7100000000000000000000000000000000000000000000000000000000600052601160045260246000fd5b6000611cf5826114ad565b91507fffffffffffffffffffffffffffffffffffffffffffffffffffffffffffffffff8203611d2757611d26611cbb565b5b600182019050919050565b7f4e6f7420746865206f776e657200000000000000000000000000000000000000600082015250565b6000611d68600d8361155b565b9150611d7382611d32565b602082019050919050565b60006020820190508181036000830152611d9781611d5b565b9050919050565b7f4e487b7100000000000000000000000000000000000000000000000000000000600052603260045260246000fd5b6000611dd8826114ad565b9150611de3836114ad565b9250828203905081811115611dfb57611dfa611cbb565b5b92915050565b7f4e487b7100000000000000000000000000000000000000000000000000000000600052603160045260246000fd5b7f4f776e61626c653a206e6577206f776e657220697320746865207a65726f206160008201527f6464726573730000000000000000000000000000000000000000000000000000602082015250565b6000611e8c60268361155b565b9150611e9782611e30565b604082019050919050565b60006020820190508181036000830152611ebb81611e7f565b9050919050565b7f5061757361626c653a2070617573656400000000000000000000000000000000600082015250565b6000611ef860108361155b565b9150611f0382611ec2565b602082019050919050565b60006020820190508181036000830152611f2781611eeb565b9050919050565b7f4f776e61626c653a2063616c6c6572206973206e6f7420746865206f776e6572600082015250565b6000611f6460208361155b565b9150611f6f82611f2e565b602082019050919050565b60006020820190508181036000830152611f9381611f57565b9050919050565b7f5061757361626c653a206e6f7420706175736564000000000000000000000000600082015250565b6000611fd060148361155b565b9150611fdb82611f9a565b602082019050919050565b60006020820190508181036000830152611fff81611fc3565b905091905056fea2646970667358221220df2f81d3f983dc3ae61a85c4aa3d99b4d2dd2faa88f12feccd4bb4df32daab5d64736f6c63430008130033",
  "immutableReferences": {},
  "source": "/// SPDX-License-Identifier: UNLICENSED\r\npragma solidity ^0.8.6;\r\n\r\nimport \"@openzeppelin/contracts/access/Ownable.sol\";\r\nimport \"@openzeppelin/contracts/security/Pausable.sol\";\r\n\r\ncontract CommunityContract is Ownable, Pausable {\r\n    struct Community {\r\n        string name;\r\n        string description;\r\n        address owner;\r\n        bool isEnabled; // Add this to enable/disable community\r\n        uint256[] postIds; // Add this to keep track of posts in community\r\n    }\r\n\r\n    mapping(uint256 => Community) public communities;\r\n    mapping(string => uint256) public nameToId; // Additional mapping\r\n    uint256 public communityCounter = 0;\r\n    uint256[] public communityIds = new uint256[](0);\r\n\r\n    event CommunityCreated(\r\n        uint256 indexed communityId,\r\n        address indexed owner,\r\n        string name,\r\n        string description\r\n    );\r\n    event CommunityUpdated(\r\n        uint256 indexed communityId,\r\n        address indexed owner,\r\n        string name,\r\n        string description\r\n    );\r\n\r\n    // address public postCommentContractAddress; //\r\n\r\n    // // Only allow the PostCommentContract instance to call certain functions\r\n    // modifier onlyPostCommentContract() {\r\n    //     require(\r\n    //         msg.sender == postCommentContractAddress,\r\n    //         \"Caller is not the PostCommentContract\"\r\n    //     );\r\n    //     _;\r\n    // }\r\n\r\n    // function setPostCommentContractAddress(\r\n    //     address _postCommentContractAddress\r\n    // ) public onlyOwner {\r\n    //     postCommentContractAddress = _postCommentContractAddress;\r\n    // }\r\n\r\n    function createCommunity(\r\n        string memory _name,\r\n        string memory _description\r\n    ) public whenNotPaused {\r\n        communities[communityCounter] = Community(\r\n            _name,\r\n            _description,\r\n            msg.sender,\r\n            true, // Enable the community by default\r\n            new uint256[](0) // Initialize postIds as an empty array\r\n        );\r\n        nameToId[_name] = communityCounter; // Store the new mapping\r\n        emit CommunityCreated(\r\n            communityCounter,\r\n            msg.sender,\r\n            _name,\r\n            _description\r\n        );\r\n        communityIds.push(communityCounter);\r\n        communityCounter++;\r\n    }\r\n\r\n    function getCommunityId(string memory _name) public view returns (uint256) {\r\n        return nameToId[_name]; // Return the community ID by name\r\n    }\r\n\r\n    function getCommunity(\r\n        uint256 _communityId\r\n    )\r\n        public\r\n        view\r\n        returns (string memory, string memory, address, bool, uint256[] memory)\r\n    {\r\n        return (\r\n            communities[_communityId].name,\r\n            communities[_communityId].description,\r\n            communities[_communityId].owner,\r\n            communities[_communityId].isEnabled,\r\n            communities[_communityId].postIds // Return postIds\r\n        );\r\n    }\r\n\r\n    function getCommunityIds() public view returns (uint256[] memory) {\r\n        return communityIds;\r\n    }\r\n\r\n    function updateCommunity(\r\n        uint256 _communityId,\r\n        string memory _name,\r\n        string memory _description\r\n    ) public whenNotPaused {\r\n        require(msg.sender == communities[_communityId].owner, \"Not the owner\");\r\n        communities[_communityId].name = _name;\r\n        communities[_communityId].description = _description;\r\n        emit CommunityUpdated(_communityId, msg.sender, _name, _description);\r\n    }\r\n\r\n    function isCommunityEnabled(\r\n        uint256 _communityId\r\n    ) public view returns (bool) {\r\n        return communities[_communityId].isEnabled;\r\n    }\r\n\r\n    function enableCommunity(uint256 _communityId) public whenNotPaused {\r\n        require(msg.sender == communities[_communityId].owner, \"Not the owner\");\r\n        communities[_communityId].isEnabled = true;\r\n    }\r\n\r\n    function disableCommunity(uint256 _communityId) public whenNotPaused {\r\n        require(msg.sender == communities[_communityId].owner, \"Not the owner\");\r\n        communities[_communityId].isEnabled = false;\r\n    }\r\n\r\n    function addPostIdToCommunity(\r\n        uint256 _communityId,\r\n        uint256 _postId\r\n    ) public {\r\n        // Let's assume this function can be called by anyone for this demo\r\n        communities[_communityId].postIds.push(_postId);\r\n    }\r\n\r\n    function removePostIdFromCommunity(\r\n        uint256 _communityId,\r\n        uint256 _postId\r\n    ) public {\r\n        uint256 postCount = communities[_communityId].postIds.length;\r\n        for (uint256 i = 0; i < postCount; i++) {\r\n            if (communities[_communityId].postIds[i] == _postId) {\r\n                communities[_communityId].postIds[i] = communities[_communityId]\r\n                    .postIds[postCount - 1];\r\n                communities[_communityId].postIds.pop();\r\n                break;\r\n            }\r\n        }\r\n    }\r\n\r\n    function pause() public onlyOwner {\r\n        _pause();\r\n    }\r\n\r\n    function unpause() public onlyOwner {\r\n        _unpause();\r\n    }\r\n}\r\n",
  "sourcePath": "D:\\IT\\6452\\project\\proj2-Forum Dapp\\contracts\\CommunityContract.sol",
  "compiler": {
    "name": "solc",
    "version": "0.8.19+commit.7dd6d404.Emscripten.clang"
  },
  "schemaVersion": "3.4.14",
  "updatedAt": "2023-07-25T07:43:19.707Z",
  "networkType": "ethereum",
  "devdoc": {
    "events": {
      "Paused(address)": {
        "details": "Emitted when the pause is triggered by `account`."
      },
      "Unpaused(address)": {
        "details": "Emitted when the pause is lifted by `account`."
      }
    },
    "kind": "dev",
    "methods": {
      "owner()": {
        "details": "Returns the address of the current owner."
      },
      "paused()": {
        "details": "Returns true if the contract is paused, and false otherwise."
      },
      "renounceOwnership()": {
        "details": "Leaves the contract without owner. It will not be possible to call `onlyOwner` functions. Can only be called by the current owner. NOTE: Renouncing ownership will leave the contract without an owner, thereby disabling any functionality that is only available to the owner."
      },
      "transferOwnership(address)": {
        "details": "Transfers ownership of the contract to a new account (`newOwner`). Can only be called by the current owner."
      }
    },
    "version": 1
  },
  "userdoc": {
    "kind": "user",
    "methods": {},
    "version": 1
  }
}