{
  "contractName": "PostCommentContract",
  "abi": [
    {
      "inputs": [
        {
          "internalType": "contract ICommunityContract",
          "name": "_communityContract",
          "type": "address"
        }
      ],
      "stateMutability": "nonpayable",
      "type": "constructor"
    },
    {
      "anonymous": false,
      "inputs": [
        {
          "indexed": true,
          "internalType": "uint256",
          "name": "postId",
          "type": "uint256"
        },
        {
          "indexed": true,
          "internalType": "address",
          "name": "owner",
          "type": "address"
        },
        {
          "indexed": false,
          "internalType": "string",
          "name": "ipfsHash",
          "type": "string"
        }
      ],
      "name": "CommentCreated",
      "type": "event"
    },
    {
      "anonymous": false,
      "inputs": [
        {
          "indexed": true,
          "internalType": "address",
          "name": "previousOwner",
          "type": "address"
        },
        {
          "indexed": true,
          "internalType": "address",
          "name": "newOwner",
          "type": "address"
        }
      ],
      "name": "OwnershipTransferred",
      "type": "event"
    },
    {
      "anonymous": false,
      "inputs": [
        {
          "indexed": false,
          "internalType": "address",
          "name": "account",
          "type": "address"
        }
      ],
      "name": "Paused",
      "type": "event"
    },
    {
      "anonymous": false,
      "inputs": [
        {
          "indexed": true,
          "internalType": "uint256",
          "name": "postId",
          "type": "uint256"
        },
        {
          "indexed": true,
          "internalType": "uint256",
          "name": "communityId",
          "type": "uint256"
        },
        {
          "indexed": true,
          "internalType": "address",
          "name": "owner",
          "type": "address"
        },
        {
          "indexed": false,
          "internalType": "string",
          "name": "ipfsHash",
          "type": "string"
        }
      ],
      "name": "PostCreated",
      "type": "event"
    },
    {
      "anonymous": false,
      "inputs": [
        {
          "indexed": true,
          "internalType": "uint256",
          "name": "postId",
          "type": "uint256"
        },
        {
          "indexed": true,
          "internalType": "address",
          "name": "owner",
          "type": "address"
        },
        {
          "indexed": false,
          "internalType": "string",
          "name": "ipfsHash",
          "type": "string"
        }
      ],
      "name": "PostUpdated",
      "type": "event"
    },
    {
      "anonymous": false,
      "inputs": [
        {
          "indexed": false,
          "internalType": "address",
          "name": "account",
          "type": "address"
        }
      ],
      "name": "Unpaused",
      "type": "event"
    },
    {
      "inputs": [
        {
          "internalType": "uint256",
          "name": "",
          "type": "uint256"
        },
        {
          "internalType": "uint256",
          "name": "",
          "type": "uint256"
        }
      ],
      "name": "comments",
      "outputs": [
        {
          "internalType": "string",
          "name": "ipfsHash",
          "type": "string"
        },
        {
          "internalType": "uint256",
          "name": "postId",
          "type": "uint256"
        },
        {
          "internalType": "address",
          "name": "owner",
          "type": "address"
        }
      ],
      "stateMutability": "view",
      "type": "function",
      "constant": true
    },
    {
      "inputs": [],
      "name": "communityContract",
      "outputs": [
        {
          "internalType": "contract ICommunityContract",
          "name": "",
          "type": "address"
        }
      ],
      "stateMutability": "view",
      "type": "function",
      "constant": true
    },
    {
      "inputs": [],
      "name": "owner",
      "outputs": [
        {
          "internalType": "address",
          "name": "",
          "type": "address"
        }
      ],
      "stateMutability": "view",
      "type": "function",
      "constant": true
    },
    {
      "inputs": [],
      "name": "paused",
      "outputs": [
        {
          "internalType": "bool",
          "name": "",
          "type": "bool"
        }
      ],
      "stateMutability": "view",
      "type": "function",
      "constant": true
    },
    {
      "inputs": [],
      "name": "postCounter",
      "outputs": [
        {
          "internalType": "uint256",
          "name": "",
          "type": "uint256"
        }
      ],
      "stateMutability": "view",
      "type": "function",
      "constant": true
    },
    {
      "inputs": [
        {
          "internalType": "uint256",
          "name": "",
          "type": "uint256"
        }
      ],
      "name": "posts",
      "outputs": [
        {
          "internalType": "string",
          "name": "ipfsHash",
          "type": "string"
        },
        {
          "internalType": "uint256",
          "name": "communityId",
          "type": "uint256"
        },
        {
          "internalType": "address",
          "name": "owner",
          "type": "address"
        }
      ],
      "stateMutability": "view",
      "type": "function",
      "constant": true
    },
    {
      "inputs": [],
      "name": "renounceOwnership",
      "outputs": [],
      "stateMutability": "nonpayable",
      "type": "function"
    },
    {
      "inputs": [
        {
          "internalType": "address",
          "name": "newOwner",
          "type": "address"
        }
      ],
      "name": "transferOwnership",
      "outputs": [],
      "stateMutability": "nonpayable",
      "type": "function"
    },
    {
      "inputs": [
        {
          "internalType": "uint256",
          "name": "_communityId",
          "type": "uint256"
        },
        {
          "internalType": "string",
          "name": "_ipfsHash",
          "type": "string"
        }
      ],
      "name": "createPost",
      "outputs": [],
      "stateMutability": "nonpayable",
      "type": "function"
    },
    {
      "inputs": [
        {
          "internalType": "uint256",
          "name": "_postId",
          "type": "uint256"
        }
      ],
      "name": "getPost",
      "outputs": [
        {
          "internalType": "string",
          "name": "",
          "type": "string"
        },
        {
          "internalType": "uint256",
          "name": "",
          "type": "uint256"
        },
        {
          "internalType": "address",
          "name": "",
          "type": "address"
        }
      ],
      "stateMutability": "view",
      "type": "function",
      "constant": true
    },
    {
      "inputs": [
        {
          "internalType": "uint256",
          "name": "_postId",
          "type": "uint256"
        },
        {
          "internalType": "string",
          "name": "_ipfsHash",
          "type": "string"
        }
      ],
      "name": "updatePost",
      "outputs": [],
      "stateMutability": "nonpayable",
      "type": "function"
    },
    {
      "inputs": [
        {
          "internalType": "uint256",
          "name": "_postId",
          "type": "uint256"
        }
      ],
      "name": "deletePost",
      "outputs": [],
      "stateMutability": "nonpayable",
      "type": "function"
    },
    {
      "inputs": [
        {
          "internalType": "uint256",
          "name": "_postId",
          "type": "uint256"
        },
        {
          "internalType": "string",
          "name": "_ipfsHash",
          "type": "string"
        }
      ],
      "name": "createComment",
      "outputs": [],
      "stateMutability": "nonpayable",
      "type": "function"
    },
    {
      "inputs": [
        {
          "internalType": "uint256",
          "name": "_postId",
          "type": "uint256"
        }
      ],
      "name": "getCommentsByPost",
      "outputs": [
        {
          "components": [
            {
              "internalType": "string",
              "name": "ipfsHash",
              "type": "string"
            },
            {
              "internalType": "uint256",
              "name": "postId",
              "type": "uint256"
            },
            {
              "internalType": "address",
              "name": "owner",
              "type": "address"
            }
          ],
          "internalType": "struct PostCommentContract.Comment[]",
          "name": "",
          "type": "tuple[]"
        }
      ],
      "stateMutability": "view",
      "type": "function",
      "constant": true
    },
    {
      "inputs": [
        {
          "internalType": "uint256",
          "name": "_postId",
          "type": "uint256"
        },
        {
          "internalType": "uint256",
          "name": "_commentIndex",
          "type": "uint256"
        },
        {
          "internalType": "string",
          "name": "_ipfsHash",
          "type": "string"
        }
      ],
      "name": "updateComment",
      "outputs": [],
      "stateMutability": "nonpayable",
      "type": "function"
    },
    {
      "inputs": [
        {
          "internalType": "uint256",
          "name": "_postId",
          "type": "uint256"
        },
        {
          "internalType": "uint256",
          "name": "_commentIndex",
          "type": "uint256"
        }
      ],
      "name": "deleteComment",
      "outputs": [],
      "stateMutability": "nonpayable",
      "type": "function"
    },
    {
      "inputs": [],
      "name": "pause",
      "outputs": [],
      "stateMutability": "nonpayable",
      "type": "function"
    },
    {
      "inputs": [],
      "name": "unpause",
      "outputs": [],
      "stateMutability": "nonpayable",
      "type": "function"
    }
  ],
  "bytecode": "0x608060405260006003553480156200001657600080fd5b506040516200246c3803806200246c83398181016040528101906200003c919062000208565b6200005c62000050620000be60201b60201c565b620000c660201b60201c565b60008060146101000a81548160ff02191690831515021790555080600160006101000a81548173ffffffffffffffffffffffffffffffffffffffff021916908373ffffffffffffffffffffffffffffffffffffffff160217905550506200023a565b600033905090565b60008060009054906101000a900473ffffffffffffffffffffffffffffffffffffffff169050816000806101000a81548173ffffffffffffffffffffffffffffffffffffffff021916908373ffffffffffffffffffffffffffffffffffffffff1602179055508173ffffffffffffffffffffffffffffffffffffffff168173ffffffffffffffffffffffffffffffffffffffff167f8be0079c531659141344cd1fd0a4f28419497f9722a3daafe3b4186f6b6457e060405160405180910390a35050565b600080fd5b600073ffffffffffffffffffffffffffffffffffffffff82169050919050565b6000620001bc826200018f565b9050919050565b6000620001d082620001af565b9050919050565b620001e281620001c3565b8114620001ee57600080fd5b50565b6000815190506200020281620001d7565b92915050565b6000602082840312156200022157620002206200018a565b5b60006200023184828501620001f1565b91505092915050565b612222806200024a6000396000f3fe608060405234801561001057600080fd5b50600436106101165760003560e01c8063715018a6116100a2578063a9ca3a4c11610071578063a9ca3a4c14610285578063b406db9b146102a1578063e42cee0b146102bd578063f2fde38b146102ed578063fc6c776f1461030957610116565b8063715018a6146102355780638456cb591461023f5780638da5cb5b146102495780638e6340291461026757610116565b806331a4bcb5116100e957806331a4bcb5146101a35780633f4ba83a146101bf57806340731c24146101c957806340a17985146101fb5780635c975abb1461021757610116565b8063094cd5ee1461011b57806309b3d75e146101375780630b1e7f8314610155578063121253e714610187575b600080fd5b610135600480360381019061013091906114ba565b61033b565b005b61013f6104e4565b60405161014c91906114f6565b60405180910390f35b61016f600480360381019061016a91906114ba565b6104ea565b60405161017e939291906115e2565b60405180910390f35b6101a1600480360381019061019c9190611755565b6105bc565b005b6101bd60048036038101906101b891906117c4565b6106d1565b005b6101c7610816565b005b6101e360048036038101906101de91906114ba565b610828565b6040516101f2939291906115e2565b60405180910390f35b61021560048036038101906102109190611804565b61092a565b005b61021f610a5b565b60405161022c919061187b565b60405180910390f35b61023d610a71565b005b610247610a85565b005b610251610a97565b60405161025e9190611896565b60405180910390f35b61026f610ac0565b60405161027c9190611910565b60405180910390f35b61029f600480360381019061029a9190611804565b610ae6565b005b6102bb60048036038101906102b69190611804565b610d78565b005b6102d760048036038101906102d291906114ba565b610e9b565b6040516102e49190611aa5565b60405180910390f35b61030760048036038101906103029190611af3565b610fff565b005b610323600480360381019061031e91906117c4565b611082565b604051610332939291906115e2565b60405180910390f35b610343611171565b6002600082815260200190815260200160002060020160009054906101000a900473ffffffffffffffffffffffffffffffffffffffff1673ffffffffffffffffffffffffffffffffffffffff163373ffffffffffffffffffffffffffffffffffffffff16146103e7576040517f08c379a00000000000000000000000000000000000000000000000000000000081526004016103de90611b6c565b60405180910390fd5b600160009054906101000a900473ffffffffffffffffffffffffffffffffffffffff1673ffffffffffffffffffffffffffffffffffffffff16632f20fb596002600084815260200190815260200160002060010154836040518363ffffffff1660e01b815260040161045a929190611b8c565b600060405180830381600087803b15801561047457600080fd5b505af1158015610488573d6000803e3d6000fd5b5050505060026000828152602001908152602001600020600080820160006104b09190611413565b60018201600090556002820160006101000a81549073ffffffffffffffffffffffffffffffffffffffff0219169055505050565b60035481565b600260205280600052604060002060009150905080600001805461050d90611be4565b80601f016020809104026020016040519081016040528092919081815260200182805461053990611be4565b80156105865780601f1061055b57610100808354040283529160200191610586565b820191906000526020600020905b81548152906001019060200180831161056957829003601f168201915b5050505050908060010154908060020160009054906101000a900473ffffffffffffffffffffffffffffffffffffffff16905083565b6105c4611171565b6004600084815260200190815260200160002082815481106105e9576105e8611c15565b5b906000526020600020906003020160020160009054906101000a900473ffffffffffffffffffffffffffffffffffffffff1673ffffffffffffffffffffffffffffffffffffffff163373ffffffffffffffffffffffffffffffffffffffff1614610688576040517f08c379a000000000000000000000000000000000000000000000000000000000815260040161067f90611b6c565b60405180910390fd5b806004600085815260200190815260200160002083815481106106ae576106ad611c15565b5b906000526020600020906003020160000190816106cb9190611de6565b50505050565b6106d9611171565b6004600083815260200190815260200160002081815481106106fe576106fd611c15565b5b906000526020600020906003020160020160009054906101000a900473ffffffffffffffffffffffffffffffffffffffff1673ffffffffffffffffffffffffffffffffffffffff163373ffffffffffffffffffffffffffffffffffffffff161461079d576040517f08c379a000000000000000000000000000000000000000000000000000000000815260040161079490611b6c565b60405180910390fd5b6004600083815260200190815260200160002081815481106107c2576107c1611c15565b5b9060005260206000209060030201600080820160006107e19190611413565b60018201600090556002820160006101000a81549073ffffffffffffffffffffffffffffffffffffffff021916905550505050565b61081e6111bb565b610826611239565b565b60606000806002600085815260200190815260200160002060000160026000868152602001908152602001600020600101546002600087815260200190815260200160002060020160009054906101000a900473ffffffffffffffffffffffffffffffffffffffff1682805461089d90611be4565b80601f01602080910402602001604051908101604052809291908181526020018280546108c990611be4565b80156109165780601f106108eb57610100808354040283529160200191610916565b820191906000526020600020905b8154815290600101906020018083116108f957829003601f168201915b505050505092509250925092509193909250565b610932611171565b6004600083815260200190815260200160002060405180606001604052808381526020018481526020013373ffffffffffffffffffffffffffffffffffffffff16815250908060018154018082558091505060019003906000526020600020906003020160009091909190915060008201518160000190816109b49190611de6565b506020820151816001015560408201518160020160006101000a81548173ffffffffffffffffffffffffffffffffffffffff021916908373ffffffffffffffffffffffffffffffffffffffff16021790555050503373ffffffffffffffffffffffffffffffffffffffff16827fe9353c7387d06e4785ec7788c0b25116a70f438376630bab01a2ded82cda43be83604051610a4f9190611eb8565b60405180910390a35050565b60008060149054906101000a900460ff16905090565b610a796111bb565b610a83600061129b565b565b610a8d6111bb565b610a9561135f565b565b60008060009054906101000a900473ffffffffffffffffffffffffffffffffffffffff16905090565b600160009054906101000a900473ffffffffffffffffffffffffffffffffffffffff1681565b610aee611171565b600160009054906101000a900473ffffffffffffffffffffffffffffffffffffffff1673ffffffffffffffffffffffffffffffffffffffff1663426b6283836040518263ffffffff1660e01b8152600401610b4991906114f6565b602060405180830381865afa158015610b66573d6000803e3d6000fd5b505050506040513d601f19601f82011682018060405250810190610b8a9190611f06565b610bc9576040517f08c379a0000000000000000000000000000000000000000000000000000000008152600401610bc090611f7f565b60405180910390fd5b60405180606001604052808281526020018381526020013373ffffffffffffffffffffffffffffffffffffffff168152506002600060035481526020019081526020016000206000820151816000019081610c249190611de6565b506020820151816001015560408201518160020160006101000a81548173ffffffffffffffffffffffffffffffffffffffff021916908373ffffffffffffffffffffffffffffffffffffffff160217905550905050600160009054906101000a900473ffffffffffffffffffffffffffffffffffffffff1673ffffffffffffffffffffffffffffffffffffffff1663a0024e45836003546040518363ffffffff1660e01b8152600401610cd8929190611b8c565b600060405180830381600087803b158015610cf257600080fd5b505af1158015610d06573d6000803e3d6000fd5b505050503373ffffffffffffffffffffffffffffffffffffffff16826003547f61a7a6dea2aa2bb38e8d1303241c981b5ba162215611d715da3efa50195c177d84604051610d549190611eb8565b60405180910390a460036000815480929190610d6f90611fce565b91905055505050565b610d80611171565b6002600083815260200190815260200160002060020160009054906101000a900473ffffffffffffffffffffffffffffffffffffffff1673ffffffffffffffffffffffffffffffffffffffff163373ffffffffffffffffffffffffffffffffffffffff1614610e24576040517f08c379a0000000000000000000000000000000000000000000000000000000008152600401610e1b90611b6c565b60405180910390fd5b80600260008481526020019081526020016000206000019081610e479190611de6565b503373ffffffffffffffffffffffffffffffffffffffff16827f99cef96894bce91ada1fac6cdc3094423e3cb7dc7efc085c9e10d5e74fa990ad83604051610e8f9190611eb8565b60405180910390a35050565b606060046000838152602001908152602001600020805480602002602001604051908101604052809291908181526020016000905b82821015610ff45783829060005260206000209060030201604051806060016040529081600082018054610f0390611be4565b80601f0160208091040260200160405190810160405280929190818152602001828054610f2f90611be4565b8015610f7c5780601f10610f5157610100808354040283529160200191610f7c565b820191906000526020600020905b815481529060010190602001808311610f5f57829003601f168201915b50505050508152602001600182015481526020016002820160009054906101000a900473ffffffffffffffffffffffffffffffffffffffff1673ffffffffffffffffffffffffffffffffffffffff1673ffffffffffffffffffffffffffffffffffffffff168152505081526020019060010190610ed0565b505050509050919050565b6110076111bb565b600073ffffffffffffffffffffffffffffffffffffffff168173ffffffffffffffffffffffffffffffffffffffff1603611076576040517f08c379a000000000000000000000000000000000000000000000000000000000815260040161106d90612088565b60405180910390fd5b61107f8161129b565b50565b6004602052816000526040600020818154811061109e57600080fd5b9060005260206000209060030201600091509150508060000180546110c290611be4565b80601f01602080910402602001604051908101604052809291908181526020018280546110ee90611be4565b801561113b5780601f106111105761010080835404028352916020019161113b565b820191906000526020600020905b81548152906001019060200180831161111e57829003601f168201915b5050505050908060010154908060020160009054906101000a900473ffffffffffffffffffffffffffffffffffffffff16905083565b611179610a5b565b156111b9576040517f08c379a00000000000000000000000000000000000000000000000000000000081526004016111b0906120f4565b60405180910390fd5b565b6111c36113c2565b73ffffffffffffffffffffffffffffffffffffffff166111e1610a97565b73ffffffffffffffffffffffffffffffffffffffff1614611237576040517f08c379a000000000000000000000000000000000000000000000000000000000815260040161122e90612160565b60405180910390fd5b565b6112416113ca565b60008060146101000a81548160ff0219169083151502179055507f5db9ee0a495bf2e6ff9c91a7834c1ba4fdd244a5e8aa4e537bd38aeae4b073aa6112846113c2565b6040516112919190611896565b60405180910390a1565b60008060009054906101000a900473ffffffffffffffffffffffffffffffffffffffff169050816000806101000a81548173ffffffffffffffffffffffffffffffffffffffff021916908373ffffffffffffffffffffffffffffffffffffffff1602179055508173ffffffffffffffffffffffffffffffffffffffff168173ffffffffffffffffffffffffffffffffffffffff167f8be0079c531659141344cd1fd0a4f28419497f9722a3daafe3b4186f6b6457e060405160405180910390a35050565b611367611171565b6001600060146101000a81548160ff0219169083151502179055507f62e78cea01bee320cd4e420270b5ea74000d11b0c9f74754ebdbfc544b05a2586113ab6113c2565b6040516113b89190611896565b60405180910390a1565b600033905090565b6113d2610a5b565b611411576040517f08c379a0000000000000000000000000000000000000000000000000000000008152600401611408906121cc565b60405180910390fd5b565b50805461141f90611be4565b6000825580601f106114315750611450565b601f01602090049060005260206000209081019061144f9190611453565b5b50565b5b8082111561146c576000816000905550600101611454565b5090565b6000604051905090565b600080fd5b600080fd5b6000819050919050565b61149781611484565b81146114a257600080fd5b50565b6000813590506114b48161148e565b92915050565b6000602082840312156114d0576114cf61147a565b5b60006114de848285016114a5565b91505092915050565b6114f081611484565b82525050565b600060208201905061150b60008301846114e7565b92915050565b600081519050919050565b600082825260208201905092915050565b60005b8381101561154b578082015181840152602081019050611530565b60008484015250505050565b6000601f19601f8301169050919050565b600061157382611511565b61157d818561151c565b935061158d81856020860161152d565b61159681611557565b840191505092915050565b600073ffffffffffffffffffffffffffffffffffffffff82169050919050565b60006115cc826115a1565b9050919050565b6115dc816115c1565b82525050565b600060608201905081810360008301526115fc8186611568565b905061160b60208301856114e7565b61161860408301846115d3565b949350505050565b600080fd5b600080fd5b7f4e487b7100000000000000000000000000000000000000000000000000000000600052604160045260246000fd5b61166282611557565b810181811067ffffffffffffffff821117156116815761168061162a565b5b80604052505050565b6000611694611470565b90506116a08282611659565b919050565b600067ffffffffffffffff8211156116c0576116bf61162a565b5b6116c982611557565b9050602081019050919050565b82818337600083830152505050565b60006116f86116f3846116a5565b61168a565b90508281526020810184848401111561171457611713611625565b5b61171f8482856116d6565b509392505050565b600082601f83011261173c5761173b611620565b5b813561174c8482602086016116e5565b91505092915050565b60008060006060848603121561176e5761176d61147a565b5b600061177c868287016114a5565b935050602061178d868287016114a5565b925050604084013567ffffffffffffffff8111156117ae576117ad61147f565b5b6117ba86828701611727565b9150509250925092565b600080604083850312156117db576117da61147a565b5b60006117e9858286016114a5565b92505060206117fa858286016114a5565b9150509250929050565b6000806040838503121561181b5761181a61147a565b5b6000611829858286016114a5565b925050602083013567ffffffffffffffff81111561184a5761184961147f565b5b61185685828601611727565b9150509250929050565b60008115159050919050565b61187581611860565b82525050565b6000602082019050611890600083018461186c565b92915050565b60006020820190506118ab60008301846115d3565b92915050565b6000819050919050565b60006118d66118d16118cc846115a1565b6118b1565b6115a1565b9050919050565b60006118e8826118bb565b9050919050565b60006118fa826118dd565b9050919050565b61190a816118ef565b82525050565b60006020820190506119256000830184611901565b92915050565b600081519050919050565b600082825260208201905092915050565b6000819050602082019050919050565b600082825260208201905092915050565b600061197382611511565b61197d8185611957565b935061198d81856020860161152d565b61199681611557565b840191505092915050565b6119aa81611484565b82525050565b6119b9816115c1565b82525050565b600060608301600083015184820360008601526119dc8282611968565b91505060208301516119f160208601826119a1565b506040830151611a0460408601826119b0565b508091505092915050565b6000611a1b83836119bf565b905092915050565b6000602082019050919050565b6000611a3b8261192b565b611a458185611936565b935083602082028501611a5785611947565b8060005b85811015611a935784840389528151611a748582611a0f565b9450611a7f83611a23565b925060208a01995050600181019050611a5b565b50829750879550505050505092915050565b60006020820190508181036000830152611abf8184611a30565b905092915050565b611ad0816115c1565b8114611adb57600080fd5b50565b600081359050611aed81611ac7565b92915050565b600060208284031215611b0957611b0861147a565b5b6000611b1784828501611ade565b91505092915050565b7f4e6f7420746865206f776e657200000000000000000000000000000000000000600082015250565b6000611b56600d8361151c565b9150611b6182611b20565b602082019050919050565b60006020820190508181036000830152611b8581611b49565b9050919050565b6000604082019050611ba160008301856114e7565b611bae60208301846114e7565b9392505050565b7f4e487b7100000000000000000000000000000000000000000000000000000000600052602260045260246000fd5b60006002820490506001821680611bfc57607f821691505b602082108103611c0f57611c0e611bb5565b5b50919050565b7f4e487b7100000000000000000000000000000000000000000000000000000000600052603260045260246000fd5b60008190508160005260206000209050919050565b60006020601f8301049050919050565b600082821b905092915050565b600060088302611ca67fffffffffffffffffffffffffffffffffffffffffffffffffffffffffffffffff82611c69565b611cb08683611c69565b95508019841693508086168417925050509392505050565b6000611ce3611cde611cd984611484565b6118b1565b611484565b9050919050565b6000819050919050565b611cfd83611cc8565b611d11611d0982611cea565b848454611c76565b825550505050565b600090565b611d26611d19565b611d31818484611cf4565b505050565b5b81811015611d5557611d4a600082611d1e565b600181019050611d37565b5050565b601f821115611d9a57611d6b81611c44565b611d7484611c59565b81016020851015611d83578190505b611d97611d8f85611c59565b830182611d36565b50505b505050565b600082821c905092915050565b6000611dbd60001984600802611d9f565b1980831691505092915050565b6000611dd68383611dac565b9150826002028217905092915050565b611def82611511565b67ffffffffffffffff811115611e0857611e0761162a565b5b611e128254611be4565b611e1d828285611d59565b600060209050601f831160018114611e505760008415611e3e578287015190505b611e488582611dca565b865550611eb0565b601f198416611e5e86611c44565b60005b82811015611e8657848901518255600182019150602085019450602081019050611e61565b86831015611ea35784890151611e9f601f891682611dac565b8355505b6001600288020188555050505b505050505050565b60006020820190508181036000830152611ed28184611568565b905092915050565b611ee381611860565b8114611eee57600080fd5b50565b600081519050611f0081611eda565b92915050565b600060208284031215611f1c57611f1b61147a565b5b6000611f2a84828501611ef1565b91505092915050565b7f436f6d6d756e697479206973206e6f7420656e61626c65640000000000000000600082015250565b6000611f6960188361151c565b9150611f7482611f33565b602082019050919050565b60006020820190508181036000830152611f9881611f5c565b9050919050565b7f4e487b7100000000000000000000000000000000000000000000000000000000600052601160045260246000fd5b6000611fd982611484565b91507fffffffffffffffffffffffffffffffffffffffffffffffffffffffffffffffff820361200b5761200a611f9f565b5b600182019050919050565b7f4f776e61626c653a206e6577206f776e657220697320746865207a65726f206160008201527f6464726573730000000000000000000000000000000000000000000000000000602082015250565b600061207260268361151c565b915061207d82612016565b604082019050919050565b600060208201905081810360008301526120a181612065565b9050919050565b7f5061757361626c653a2070617573656400000000000000000000000000000000600082015250565b60006120de60108361151c565b91506120e9826120a8565b602082019050919050565b6000602082019050818103600083015261210d816120d1565b9050919050565b7f4f776e61626c653a2063616c6c6572206973206e6f7420746865206f776e6572600082015250565b600061214a60208361151c565b915061215582612114565b602082019050919050565b600060208201905081810360008301526121798161213d565b9050919050565b7f5061757361626c653a206e6f7420706175736564000000000000000000000000600082015250565b60006121b660148361151c565b91506121c182612180565b602082019050919050565b600060208201905081810360008301526121e5816121a9565b905091905056fea264697066735822122070fa790669faf2fd4d32cc7c97837c9e2e3e7fc11e8bcd927d9e83d697e8909764736f6c63430008130033",
  "immutableReferences": {},
  "source": "/// SPDX-License-Identifier: UNLICENSED\r\npragma solidity ^0.8.6;\r\n\r\nimport \"@openzeppelin/contracts/access/Ownable.sol\";\r\nimport \"@openzeppelin/contracts/security/Pausable.sol\";\r\nimport \"./ICommunityContract.sol\"; // Import the interface\r\n\r\ncontract PostCommentContract is Ownable, Pausable {\r\n    ICommunityContract public communityContract; // Declare a state variable of type ICommunityContract\r\n\r\n    constructor(ICommunityContract _communityContract) {\r\n        communityContract = _communityContract; // Initialize the ICommunityContract in the constructor\r\n    }\r\n\r\n    struct Post {\r\n        string ipfsHash;\r\n        uint256 communityId;\r\n        address owner;\r\n    }\r\n\r\n    struct Comment {\r\n        string ipfsHash;\r\n        uint256 postId;\r\n        address owner;\r\n    }\r\n\r\n    mapping(uint256 => Post) public posts;\r\n    uint256 public postCounter = 0;\r\n\r\n    mapping(uint256 => Comment[]) public comments;\r\n\r\n    event PostCreated(\r\n        uint256 indexed postId,\r\n        uint256 indexed communityId,\r\n        address indexed owner,\r\n        string ipfsHash\r\n    );\r\n    event PostUpdated(\r\n        uint256 indexed postId,\r\n        address indexed owner,\r\n        string ipfsHash\r\n    );\r\n    event CommentCreated(\r\n        uint256 indexed postId,\r\n        address indexed owner,\r\n        string ipfsHash\r\n    );\r\n\r\n    function createPost(\r\n        uint256 _communityId,\r\n        string memory _ipfsHash\r\n    ) public whenNotPaused {\r\n        require(\r\n            communityContract.isCommunityEnabled(_communityId),\r\n            \"Community is not enabled\"\r\n        ); // Require that the community is enabled\r\n        posts[postCounter] = Post(_ipfsHash, _communityId, msg.sender);\r\n        communityContract.addPostIdToCommunity(_communityId, postCounter); // Call the new function to add post ID to community\r\n        emit PostCreated(postCounter, _communityId, msg.sender, _ipfsHash);\r\n        postCounter++;\r\n    }\r\n\r\n    function getPost(\r\n        uint256 _postId\r\n    ) public view returns (string memory, uint256, address) {\r\n        return (\r\n            posts[_postId].ipfsHash,\r\n            posts[_postId].communityId,\r\n            posts[_postId].owner\r\n        );\r\n    }\r\n\r\n    function updatePost(\r\n        uint256 _postId,\r\n        string memory _ipfsHash\r\n    ) public whenNotPaused {\r\n        require(msg.sender == posts[_postId].owner, \"Not the owner\");\r\n        posts[_postId].ipfsHash = _ipfsHash;\r\n        emit PostUpdated(_postId, msg.sender, _ipfsHash);\r\n    }\r\n\r\n    function deletePost(uint256 _postId) public whenNotPaused {\r\n        require(msg.sender == posts[_postId].owner, \"Not the owner\");\r\n        communityContract.removePostIdFromCommunity(\r\n            posts[_postId].communityId,\r\n            _postId\r\n        ); // Call the new function to remove post ID from community\r\n        delete posts[_postId];\r\n    }\r\n\r\n    function createComment(\r\n        uint256 _postId,\r\n        string memory _ipfsHash\r\n    ) public whenNotPaused {\r\n        comments[_postId].push(Comment(_ipfsHash, _postId, msg.sender));\r\n        emit CommentCreated(_postId, msg.sender, _ipfsHash);\r\n    }\r\n\r\n    function getCommentsByPost(\r\n        uint256 _postId\r\n    ) public view returns (Comment[] memory) {\r\n        return comments[_postId];\r\n    }\r\n\r\n    function updateComment(\r\n        uint256 _postId,\r\n        uint256 _commentIndex,\r\n        string memory _ipfsHash\r\n    ) public whenNotPaused {\r\n        require(\r\n            msg.sender == comments[_postId][_commentIndex].owner,\r\n            \"Not the owner\"\r\n        );\r\n        comments[_postId][_commentIndex].ipfsHash = _ipfsHash;\r\n        // Consider emitting an event here\r\n    }\r\n\r\n    function deleteComment(\r\n        uint256 _postId,\r\n        uint256 _commentIndex\r\n    ) public whenNotPaused {\r\n        require(\r\n            msg.sender == comments[_postId][_commentIndex].owner,\r\n            \"Not the owner\"\r\n        );\r\n        delete comments[_postId][_commentIndex];\r\n        // Consider emitting an event here\r\n    }\r\n\r\n    function pause() public onlyOwner {\r\n        _pause();\r\n    }\r\n\r\n    function unpause() public onlyOwner {\r\n        _unpause();\r\n    }\r\n}\r\n",
  "sourcePath": "D:\\IT\\6452\\project\\proj2-Forum Dapp\\contracts\\PostCommentContract.sol",
  "compiler": {
    "name": "solc",
    "version": "0.8.19+commit.7dd6d404.Emscripten.clang"
  },
  "schemaVersion": "3.4.14",
  "updatedAt": "2023-07-25T07:43:19.699Z",
  "networkType": "ethereum",
  "devdoc": {
    "events": {
      "Paused(address)": {
        "details": "Emitted when the pause is triggered by `account`."
      },
      "Unpaused(address)": {
        "details": "Emitted when the pause is lifted by `account`."
      }
    },
    "kind": "dev",
    "methods": {
      "owner()": {
        "details": "Returns the address of the current owner."
      },
      "paused()": {
        "details": "Returns true if the contract is paused, and false otherwise."
      },
      "renounceOwnership()": {
        "details": "Leaves the contract without owner. It will not be possible to call `onlyOwner` functions. Can only be called by the current owner. NOTE: Renouncing ownership will leave the contract without an owner, thereby disabling any functionality that is only available to the owner."
      },
      "transferOwnership(address)": {
        "details": "Transfers ownership of the contract to a new account (`newOwner`). Can only be called by the current owner."
      }
    },
    "version": 1
  },
  "userdoc": {
    "kind": "user",
    "methods": {},
    "version": 1
  }
}